{"abi":[{"type":"constructor","inputs":[{"name":"_baseDomain","type":"string","internalType":"string"}],"stateMutability":"nonpayable"},{"type":"function","name":"admin","inputs":[],"outputs":[{"name":"","type":"address","internalType":"address"}],"stateMutability":"view"},{"type":"function","name":"approve","inputs":[{"name":"to","type":"address","internalType":"address"},{"name":"tokenId","type":"uint256","internalType":"uint256"}],"outputs":[],"stateMutability":"nonpayable"},{"type":"function","name":"available","inputs":[{"name":"label","type":"string","internalType":"string"}],"outputs":[{"name":"","type":"bool","internalType":"bool"}],"stateMutability":"view"},{"type":"function","name":"balanceOf","inputs":[{"name":"owner","type":"address","internalType":"address"}],"outputs":[{"name":"","type":"uint256","internalType":"uint256"}],"stateMutability":"view"},{"type":"function","name":"baseDomain","inputs":[],"outputs":[{"name":"","type":"string","internalType":"string"}],"stateMutability":"view"},{"type":"function","name":"fullName","inputs":[{"name":"tokenId","type":"uint256","internalType":"uint256"}],"outputs":[{"name":"","type":"string","internalType":"string"}],"stateMutability":"view"},{"type":"function","name":"getApproved","inputs":[{"name":"tokenId","type":"uint256","internalType":"uint256"}],"outputs":[{"name":"","type":"address","internalType":"address"}],"stateMutability":"view"},{"type":"function","name":"getTokenId","inputs":[{"name":"label","type":"string","internalType":"string"}],"outputs":[{"name":"","type":"uint256","internalType":"uint256"}],"stateMutability":"pure"},{"type":"function","name":"isApprovedForAll","inputs":[{"name":"owner","type":"address","internalType":"address"},{"name":"operator","type":"address","internalType":"address"}],"outputs":[{"name":"","type":"bool","internalType":"bool"}],"stateMutability":"view"},{"type":"function","name":"labels","inputs":[{"name":"","type":"uint256","internalType":"uint256"}],"outputs":[{"name":"","type":"string","internalType":"string"}],"stateMutability":"view"},{"type":"function","name":"name","inputs":[],"outputs":[{"name":"","type":"string","internalType":"string"}],"stateMutability":"view"},{"type":"function","name":"ownerOf","inputs":[{"name":"tokenId","type":"uint256","internalType":"uint256"}],"outputs":[{"name":"","type":"address","internalType":"address"}],"stateMutability":"view"},{"type":"function","name":"register","inputs":[{"name":"label","type":"string","internalType":"string"},{"name":"owner","type":"address","internalType":"address"}],"outputs":[{"name":"","type":"uint256","internalType":"uint256"}],"stateMutability":"nonpayable"},{"type":"function","name":"registered","inputs":[{"name":"","type":"string","internalType":"string"}],"outputs":[{"name":"","type":"bool","internalType":"bool"}],"stateMutability":"view"},{"type":"function","name":"safeTransferFrom","inputs":[{"name":"from","type":"address","internalType":"address"},{"name":"to","type":"address","internalType":"address"},{"name":"tokenId","type":"uint256","internalType":"uint256"}],"outputs":[],"stateMutability":"nonpayable"},{"type":"function","name":"safeTransferFrom","inputs":[{"name":"from","type":"address","internalType":"address"},{"name":"to","type":"address","internalType":"address"},{"name":"tokenId","type":"uint256","internalType":"uint256"},{"name":"data","type":"bytes","internalType":"bytes"}],"outputs":[],"stateMutability":"nonpayable"},{"type":"function","name":"setApprovalForAll","inputs":[{"name":"operator","type":"address","internalType":"address"},{"name":"approved","type":"bool","internalType":"bool"}],"outputs":[],"stateMutability":"nonpayable"},{"type":"function","name":"setBaseDomain","inputs":[{"name":"_baseDomain","type":"string","internalType":"string"}],"outputs":[],"stateMutability":"nonpayable"},{"type":"function","name":"setText","inputs":[{"name":"tokenId","type":"uint256","internalType":"uint256"},{"name":"key","type":"string","internalType":"string"},{"name":"value","type":"string","internalType":"string"}],"outputs":[],"stateMutability":"nonpayable"},{"type":"function","name":"supportsInterface","inputs":[{"name":"interfaceId","type":"bytes4","internalType":"bytes4"}],"outputs":[{"name":"","type":"bool","internalType":"bool"}],"stateMutability":"view"},{"type":"function","name":"symbol","inputs":[],"outputs":[{"name":"","type":"string","internalType":"string"}],"stateMutability":"view"},{"type":"function","name":"text","inputs":[{"name":"tokenId","type":"uint256","internalType":"uint256"},{"name":"key","type":"string","internalType":"string"}],"outputs":[{"name":"","type":"string","internalType":"string"}],"stateMutability":"view"},{"type":"function","name":"texts","inputs":[{"name":"","type":"uint256","internalType":"uint256"},{"name":"","type":"string","internalType":"string"}],"outputs":[{"name":"","type":"string","internalType":"string"}],"stateMutability":"view"},{"type":"function","name":"tokenURI","inputs":[{"name":"tokenId","type":"uint256","internalType":"uint256"}],"outputs":[{"name":"","type":"string","internalType":"string"}],"stateMutability":"view"},{"type":"function","name":"totalSupply","inputs":[],"outputs":[{"name":"","type":"uint256","internalType":"uint256"}],"stateMutability":"view"},{"type":"function","name":"transferAdmin","inputs":[{"name":"newAdmin","type":"address","internalType":"address"}],"outputs":[],"stateMutability":"nonpayable"},{"type":"function","name":"transferFrom","inputs":[{"name":"from","type":"address","internalType":"address"},{"name":"to","type":"address","internalType":"address"},{"name":"tokenId","type":"uint256","internalType":"uint256"}],"outputs":[],"stateMutability":"nonpayable"},{"type":"event","name":"Approval","inputs":[{"name":"owner","type":"address","indexed":true,"internalType":"address"},{"name":"approved","type":"address","indexed":true,"internalType":"address"},{"name":"tokenId","type":"uint256","indexed":true,"internalType":"uint256"}],"anonymous":false},{"type":"event","name":"ApprovalForAll","inputs":[{"name":"owner","type":"address","indexed":true,"internalType":"address"},{"name":"operator","type":"address","indexed":true,"internalType":"address"},{"name":"approved","type":"bool","indexed":false,"internalType":"bool"}],"anonymous":false},{"type":"event","name":"SubdomainRegistered","inputs":[{"name":"label","type":"string","indexed":true,"internalType":"string"},{"name":"owner","type":"address","indexed":true,"internalType":"address"},{"name":"tokenId","type":"uint256","indexed":false,"internalType":"uint256"}],"anonymous":false},{"type":"event","name":"TextChanged","inputs":[{"name":"tokenId","type":"uint256","indexed":true,"internalType":"uint256"},{"name":"key","type":"string","indexed":false,"internalType":"string"},{"name":"value","type":"string","indexed":false,"internalType":"string"}],"anonymous":false},{"type":"event","name":"Transfer","inputs":[{"name":"from","type":"address","indexed":true,"internalType":"address"},{"name":"to","type":"address","indexed":true,"internalType":"address"},{"name":"tokenId","type":"uint256","indexed":true,"internalType":"uint256"}],"anonymous":false},{"type":"error","name":"AlreadyRegistered","inputs":[]},{"type":"error","name":"ERC721IncorrectOwner","inputs":[{"name":"sender","type":"address","internalType":"address"},{"name":"tokenId","type":"uint256","internalType":"uint256"},{"name":"owner","type":"address","internalType":"address"}]},{"type":"error","name":"ERC721InsufficientApproval","inputs":[{"name":"operator","type":"address","internalType":"address"},{"name":"tokenId","type":"uint256","internalType":"uint256"}]},{"type":"error","name":"ERC721InvalidApprover","inputs":[{"name":"approver","type":"address","internalType":"address"}]},{"type":"error","name":"ERC721InvalidOperator","inputs":[{"name":"operator","type":"address","internalType":"address"}]},{"type":"error","name":"ERC721InvalidOwner","inputs":[{"name":"owner","type":"address","internalType":"address"}]},{"type":"error","name":"ERC721InvalidReceiver","inputs":[{"name":"receiver","type":"address","internalType":"address"}]},{"type":"error","name":"ERC721InvalidSender","inputs":[{"name":"sender","type":"address","internalType":"address"}]},{"type":"error","name":"ERC721NonexistentToken","inputs":[{"name":"tokenId","type":"uint256","internalType":"uint256"}]},{"type":"error","name":"EmptyLabel","inputs":[]},{"type":"error","name":"NotOwner","inputs":[]}],"bytecode":{"object":"0x60806040523480156200001157600080fd5b5060405162001dfc38038062001dfc8339810160408190526200003491620000e1565b6040518060400160405280600f81526020016e50617263656c69746f204e616d657360881b8152506040518060400160405280600981526020016850415243454c49544f60b81b81525081600090816200008f919062000245565b5060016200009e828262000245565b5060069150620000b19050828262000245565b5050600780546001600160a01b0319163317905562000311565b634e487b7160e01b600052604160045260246000fd5b60006020808385031215620000f557600080fd5b82516001600160401b03808211156200010d57600080fd5b818501915085601f8301126200012257600080fd5b815181811115620001375762000137620000cb565b604051601f8201601f19908116603f01168101908382118183101715620001625762000162620000cb565b8160405282815288868487010111156200017b57600080fd5b600093505b828410156200019f578484018601518185018701529285019262000180565b600086848301015280965050505050505092915050565b600181811c90821680620001cb57607f821691505b602082108103620001ec57634e487b7160e01b600052602260045260246000fd5b50919050565b601f8211156200024057600081815260208120601f850160051c810160208610156200021b5750805b601f850160051c820191505b818110156200023c5782815560010162000227565b5050505b505050565b81516001600160401b03811115620002615762000261620000cb565b6200027981620002728454620001b6565b84620001f2565b602080601f831160018114620002b15760008415620002985750858301515b600019600386901b1c1916600185901b1785556200023c565b600085815260208120601f198616915b82811015620002e257888601518255948401946001909101908401620002c1565b5085821015620003015787850151600019600388901b60f8161c191681555b5050505050600190811b01905550565b611adb80620003216000396000f3fe608060405234801561001057600080fd5b50600436106101a95760003560e01c806348136c97116100f9578063a22cb46511610097578063c87b56dd11610071578063c87b56dd1461039d578063e985e9c5146103b0578063f25fed48146103c3578063f851a440146103d657600080fd5b8063a22cb46514610364578063aeb8ce9b14610377578063b88d4fde1461038a57600080fd5b806370a08231116100d357806370a082311461032357806375829def146103365780637614551f1461034957806395d89b411461035c57600080fd5b806348136c97146102da5780635d2d5c37146102e25780636352211e1461031057600080fd5b80631e7663bc11610166578063308e338611610140578063308e33861461028e5780633f97802e146102a15780633fb24782146102b457806342842e0e146102c757600080fd5b80631e7663bc1461025557806323b872dd146102685780632dedbbc61461027b57600080fd5b806301ffc9a7146101ae57806306fdde03146101d6578063081812fc146101eb578063095ea7b31461021657806318160ddd1461022b5780631e59c52914610242575b600080fd5b6101c16101bc3660046112b8565b6103e9565b60405190151581526020015b60405180910390f35b6101de61043b565b6040516101cd9190611325565b6101fe6101f9366004611338565b6104cd565b6040516001600160a01b0390911681526020016101cd565b61022961022436600461136d565b6104f6565b005b610234600b5481565b6040519081526020016101cd565b6102346102503660046113e0565b610505565b610234610263366004611434565b61064d565b610229610276366004611476565b61066f565b6101de610289366004611338565b6106ff565b6101de61029c3660046114b2565b61073d565b6101de6102af3660046115aa565b610802565b6102296102c23660046115f1565b6108b8565b6102296102d5366004611476565b61096f565b6101de61098f565b6101c16102f036600461166b565b8051602081830181018051600a8252928201919093012091525460ff1681565b6101fe61031e366004611338565b61099c565b6102346103313660046116a0565b6109a7565b6102296103443660046116a0565b6109ef565b610229610357366004611434565b610a57565b6101de610aaa565b6102296103723660046116bb565b610ab9565b6101c1610385366004611434565b610ac4565b6102296103983660046116f7565b610af4565b6101de6103ab366004611338565b610b0b565b6101c16103be366004611773565b610b80565b6101de6103d1366004611338565b610bae565b6007546101fe906001600160a01b031681565b60006001600160e01b031982166380ac58cd60e01b148061041a57506001600160e01b03198216635b5e139f60e01b145b8061043557506301ffc9a760e01b6001600160e01b03198316145b92915050565b60606000805461044a906117a6565b80601f0160208091040260200160405190810160405280929190818152602001828054610476906117a6565b80156104c35780601f10610498576101008083540402835291602001916104c3565b820191906000526020600020905b8154815290600101906020018083116104a657829003601f168201915b5050505050905090565b60006104d882610bc7565b506000828152600460205260409020546001600160a01b0316610435565b610501828233610c00565b5050565b60008281036105275760405163cccf65f560e01b815260040160405180910390fd5b600a84846040516105399291906117e0565b9081526040519081900360200190205460ff161561056a57604051630ea075bf60e21b815260040160405180910390fd5b6000848460405161057c9291906117e0565b6040519081900381209150600190600a9061059a90889088906117e0565b9081526040805160209281900383019020805460ff19169315159390931790925560008381526008909152206105d185878361183e565b50600b80549060006105e2836118fe565b91905055506105f18382610c0d565b826001600160a01b0316858560405161060b9291906117e0565b604051908190038120838252907fbd170c751acb3063b1323e8386cda652993c0c726eade858c12d094aec5e3ad89060200160405180910390a3949350505050565b6000828260405161065f9291906117e0565b6040519081900390209392505050565b6001600160a01b03821661069e57604051633250574960e11b8152600060048201526024015b60405180910390fd5b60006106ab838333610c27565b9050836001600160a01b0316816001600160a01b0316146106f9576040516364283d7b60e01b81526001600160a01b0380861660048301526024820184905282166044820152606401610695565b50505050565b6060600860008381526020019081526020016000206006604051602001610727929190611998565b6040516020818303038152906040529050919050565b60606009600085815260200190815260200160002083836040516107629291906117e0565b9081526020016040518091039020805461077b906117a6565b80601f01602080910402602001604051908101604052809291908181526020018280546107a7906117a6565b80156107f45780601f106107c9576101008083540402835291602001916107f4565b820191906000526020600020905b8154815290600101906020018083116107d757829003601f168201915b505050505090509392505050565b6009602090815260009283526040909220815180830184018051928152908401929093019190912091528054610837906117a6565b80601f0160208091040260200160405190810160405280929190818152602001828054610863906117a6565b80156108b05780601f10610885576101008083540402835291602001916108b0565b820191906000526020600020905b81548152906001019060200180831161089357829003601f168201915b505050505081565b336108c28661099c565b6001600160a01b0316146108e9576040516330cd747160e01b815260040160405180910390fd5b818160096000888152602001908152602001600020868660405161090e9291906117e0565b9081526020016040518091039020918261092992919061183e565b50847f7121d1b42aabab02ef111a84b9dc36375a901fd0635378f23df84878362f96c78585858560405161096094939291906119ea565b60405180910390a25050505050565b61098a83838360405180602001604052806000815250610af4565b505050565b60068054610837906117a6565b600061043582610bc7565b60006001600160a01b0382166109d3576040516322718ad960e21b815260006004820152602401610695565b506001600160a01b031660009081526003602052604090205490565b6007546001600160a01b03163314610a355760405162461bcd60e51b81526020600482015260096024820152682737ba1030b236b4b760b91b6044820152606401610695565b600780546001600160a01b0319166001600160a01b0392909216919091179055565b6007546001600160a01b03163314610a9d5760405162461bcd60e51b81526020600482015260096024820152682737ba1030b236b4b760b91b6044820152606401610695565b600661098a82848361183e565b60606001805461044a906117a6565b610501338383610d20565b6000600a8383604051610ad89291906117e0565b9081526040519081900360200190205460ff1615905092915050565b610aff84848461066f565b6106f984848484610dbf565b6060610b1682610bc7565b506000610b2e60408051602081019091526000815290565b90506000815111610b4e5760405180602001604052806000815250610b79565b80610b5884610ee8565b604051602001610b69929190611a1c565b6040516020818303038152906040525b9392505050565b6001600160a01b03918216600090815260056020908152604080832093909416825291909152205460ff1690565b60086020526000908152604090208054610837906117a6565b6000818152600260205260408120546001600160a01b03168061043557604051637e27328960e01b815260048101849052602401610695565b61098a8383836001610f7b565b610501828260405180602001604052806000815250611081565b6000828152600260205260408120546001600160a01b0390811690831615610c5457610c54818486611098565b6001600160a01b03811615610c9257610c71600085600080610f7b565b6001600160a01b038116600090815260036020526040902080546000190190555b6001600160a01b03851615610cc1576001600160a01b0385166000908152600360205260409020805460010190555b60008481526002602052604080822080546001600160a01b0319166001600160a01b0389811691821790925591518793918516917fddf252ad1be2c89b69c2b068fc378daa952ba7f163c4a11628f55a4df523b3ef91a4949350505050565b6001600160a01b038216610d5257604051630b61174360e31b81526001600160a01b0383166004820152602401610695565b6001600160a01b03838116600081815260056020908152604080832094871680845294825291829020805460ff191686151590811790915591519182527f17307eab39ab6107e8899845ad3d59bd9653f200f220920489ca2b5937696c31910160405180910390a3505050565b6001600160a01b0383163b156106f957604051630a85bd0160e11b81526001600160a01b0384169063150b7a0290610e01903390889087908790600401611a4b565b6020604051808303816000875af1925050508015610e3c575060408051601f3d908101601f19168201909252610e3991810190611a88565b60015b610ea5573d808015610e6a576040519150601f19603f3d011682016040523d82523d6000602084013e610e6f565b606091505b508051600003610e9d57604051633250574960e11b81526001600160a01b0385166004820152602401610695565b805181602001fd5b6001600160e01b03198116630a85bd0160e11b14610ee157604051633250574960e11b81526001600160a01b0385166004820152602401610695565b5050505050565b60606000610ef5836110fc565b600101905060008167ffffffffffffffff811115610f1557610f156114fe565b6040519080825280601f01601f191660200182016040528015610f3f576020820181803683370190505b5090508181016020015b600019016f181899199a1a9b1b9c1cb0b131b232b360811b600a86061a8153600a8504945084610f4957509392505050565b8080610f8f57506001600160a01b03821615155b15611051576000610f9f84610bc7565b90506001600160a01b03831615801590610fcb5750826001600160a01b0316816001600160a01b031614155b8015610fde5750610fdc8184610b80565b155b156110075760405163a9fbf51f60e01b81526001600160a01b0384166004820152602401610695565b811561104f5783856001600160a01b0316826001600160a01b03167f8c5be1e5ebec7d5bd14f71427d1e84f3dd0314c0f7b2291e5b200ac8c7c3b92560405160405180910390a45b505b5050600090815260046020526040902080546001600160a01b0319166001600160a01b0392909216919091179055565b61108b83836111d4565b61098a6000848484610dbf565b6110a3838383611239565b61098a576001600160a01b0383166110d157604051637e27328960e01b815260048101829052602401610695565b60405163177e802f60e01b81526001600160a01b038316600482015260248101829052604401610695565b60008072184f03e93ff9f4daa797ed6e38ed64bf6a1f0160401b831061113b5772184f03e93ff9f4daa797ed6e38ed64bf6a1f0160401b830492506040015b6d04ee2d6d415b85acef81000000008310611167576d04ee2d6d415b85acef8100000000830492506020015b662386f26fc10000831061118557662386f26fc10000830492506010015b6305f5e100831061119d576305f5e100830492506008015b61271083106111b157612710830492506004015b606483106111c3576064830492506002015b600a83106104355760010192915050565b6001600160a01b0382166111fe57604051633250574960e11b815260006004820152602401610695565b600061120c83836000610c27565b90506001600160a01b0381161561098a576040516339e3563760e11b815260006004820152602401610695565b60006001600160a01b038316158015906112975750826001600160a01b0316846001600160a01b0316148061127357506112738484610b80565b8061129757506000828152600460205260409020546001600160a01b038481169116145b949350505050565b6001600160e01b0319811681146112b557600080fd5b50565b6000602082840312156112ca57600080fd5b8135610b798161129f565b60005b838110156112f05781810151838201526020016112d8565b50506000910152565b600081518084526113118160208601602086016112d5565b601f01601f19169290920160200192915050565b602081526000610b7960208301846112f9565b60006020828403121561134a57600080fd5b5035919050565b80356001600160a01b038116811461136857600080fd5b919050565b6000806040838503121561138057600080fd5b61138983611351565b946020939093013593505050565b60008083601f8401126113a957600080fd5b50813567ffffffffffffffff8111156113c157600080fd5b6020830191508360208285010111156113d957600080fd5b9250929050565b6000806000604084860312156113f557600080fd5b833567ffffffffffffffff81111561140c57600080fd5b61141886828701611397565b909450925061142b905060208501611351565b90509250925092565b6000806020838503121561144757600080fd5b823567ffffffffffffffff81111561145e57600080fd5b61146a85828601611397565b90969095509350505050565b60008060006060848603121561148b57600080fd5b61149484611351565b92506114a260208501611351565b9150604084013590509250925092565b6000806000604084860312156114c757600080fd5b83359250602084013567ffffffffffffffff8111156114e557600080fd5b6114f186828701611397565b9497909650939450505050565b634e487b7160e01b600052604160045260246000fd5b600067ffffffffffffffff8084111561152f5761152f6114fe565b604051601f8501601f19908116603f01168101908282118183101715611557576115576114fe565b8160405280935085815286868601111561157057600080fd5b858560208301376000602087830101525050509392505050565b600082601f83011261159b57600080fd5b610b7983833560208501611514565b600080604083850312156115bd57600080fd5b82359150602083013567ffffffffffffffff8111156115db57600080fd5b6115e78582860161158a565b9150509250929050565b60008060008060006060868803121561160957600080fd5b85359450602086013567ffffffffffffffff8082111561162857600080fd5b61163489838a01611397565b9096509450604088013591508082111561164d57600080fd5b5061165a88828901611397565b969995985093965092949392505050565b60006020828403121561167d57600080fd5b813567ffffffffffffffff81111561169457600080fd5b6112978482850161158a565b6000602082840312156116b257600080fd5b610b7982611351565b600080604083850312156116ce57600080fd5b6116d783611351565b9150602083013580151581146116ec57600080fd5b809150509250929050565b6000806000806080858703121561170d57600080fd5b61171685611351565b935061172460208601611351565b925060408501359150606085013567ffffffffffffffff81111561174757600080fd5b8501601f8101871361175857600080fd5b61176787823560208401611514565b91505092959194509250565b6000806040838503121561178657600080fd5b61178f83611351565b915061179d60208401611351565b90509250929050565b600181811c908216806117ba57607f821691505b6020821081036117da57634e487b7160e01b600052602260045260246000fd5b50919050565b8183823760009101908152919050565b601f82111561098a57600081815260208120601f850160051c810160208610156118175750805b601f850160051c820191505b8181101561183657828155600101611823565b505050505050565b67ffffffffffffffff831115611856576118566114fe565b61186a8361186483546117a6565b836117f0565b6000601f84116001811461189e57600085156118865750838201355b600019600387901b1c1916600186901b178355610ee1565b600083815260209020601f19861690835b828110156118cf57868501358255602094850194600190920191016118af565b50868210156118ec5760001960f88860031b161c19848701351681555b505060018560011b0183555050505050565b60006001820161191e57634e487b7160e01b600052601160045260246000fd5b5060010190565b60008154611932816117a6565b6001828116801561194a576001811461195f5761198e565b60ff198416875282151583028701945061198e565b8560005260208060002060005b858110156119855781548a82015290840190820161196c565b50505082870194505b5050505092915050565b60006119a48285611925565b601760f91b81526119b86001820185611925565b95945050505050565b81835281816020850137506000828201602090810191909152601f909101601f19169091010190565b6040815260006119fe6040830186886119c1565b8281036020840152611a118185876119c1565b979650505050505050565b60008351611a2e8184602088016112d5565b835190830190611a428183602088016112d5565b01949350505050565b6001600160a01b0385811682528416602082015260408101839052608060608201819052600090611a7e908301846112f9565b9695505050505050565b600060208284031215611a9a57600080fd5b8151610b798161129f56fea26469706673582212203014ad524b6afc18f941fc1edc5d8a930d4f24838cb060313fe0001e27d6ce6164736f6c63430008140033","linkReferences":{}},"methodIdentifiers":{"admin()":"f851a440","approve(address,uint256)":"095ea7b3","available(string)":"aeb8ce9b","balanceOf(address)":"70a08231","baseDomain()":"48136c97","fullName(uint256)":"2dedbbc6","getApproved(uint256)":"081812fc","getTokenId(string)":"1e7663bc","isApprovedForAll(address,address)":"e985e9c5","labels(uint256)":"f25fed48","name()":"06fdde03","ownerOf(uint256)":"6352211e","register(string,address)":"1e59c529","registered(string)":"5d2d5c37","safeTransferFrom(address,address,uint256)":"42842e0e","safeTransferFrom(address,address,uint256,bytes)":"b88d4fde","setApprovalForAll(address,bool)":"a22cb465","setBaseDomain(string)":"7614551f","setText(uint256,string,string)":"3fb24782","supportsInterface(bytes4)":"01ffc9a7","symbol()":"95d89b41","text(uint256,string)":"308e3386","texts(uint256,string)":"3f97802e","tokenURI(uint256)":"c87b56dd","totalSupply()":"18160ddd","transferAdmin(address)":"75829def","transferFrom(address,address,uint256)":"23b872dd"},"id":27}