{"abi":[{"type":"function","name":"claims","inputs":[{"name":"","type":"string","internalType":"string"}],"outputs":[{"name":"","type":"string","internalType":"string"}],"stateMutability":"view"},{"type":"function","name":"getClaims","inputs":[{"name":"username","type":"string","internalType":"string"}],"outputs":[{"name":"","type":"string","internalType":"string"}],"stateMutability":"view"},{"type":"function","name":"getOwner","inputs":[{"name":"username","type":"string","internalType":"string"}],"outputs":[{"name":"","type":"address","internalType":"address"}],"stateMutability":"view"},{"type":"function","name":"isRegistered","inputs":[{"name":"user","type":"address","internalType":"address"}],"outputs":[{"name":"","type":"bool","internalType":"bool"}],"stateMutability":"view"},{"type":"function","name":"owners","inputs":[{"name":"","type":"string","internalType":"string"}],"outputs":[{"name":"","type":"address","internalType":"address"}],"stateMutability":"view"},{"type":"function","name":"register","inputs":[{"name":"username","type":"string","internalType":"string"}],"outputs":[],"stateMutability":"nonpayable"},{"type":"function","name":"setClaims","inputs":[{"name":"claimsJson","type":"string","internalType":"string"}],"outputs":[],"stateMutability":"nonpayable"},{"type":"function","name":"setClaimsFor","inputs":[{"name":"username","type":"string","internalType":"string"},{"name":"claimsJson","type":"string","internalType":"string"}],"outputs":[],"stateMutability":"nonpayable"},{"type":"function","name":"usernames","inputs":[{"name":"","type":"address","internalType":"address"}],"outputs":[{"name":"","type":"string","internalType":"string"}],"stateMutability":"view"},{"type":"event","name":"ClaimsUpdated","inputs":[{"name":"username","type":"string","indexed":true,"internalType":"string"},{"name":"owner","type":"address","indexed":true,"internalType":"address"},{"name":"claims","type":"string","indexed":false,"internalType":"string"}],"anonymous":false},{"type":"event","name":"UsernameRegistered","inputs":[{"name":"username","type":"string","indexed":true,"internalType":"string"},{"name":"owner","type":"address","indexed":true,"internalType":"address"}],"anonymous":false}],"bytecode":{"object":"0x608060405234801561000f575f80fd5b506114838061001d5f395ff3fe608060405234801561000f575f80fd5b5060043610610090575f3560e01c80634aaf4a12116100645780634aaf4a121461014057806375a57af914610170578063c3c5a5471461018c578063ee91877c146101bc578063f2c298be146101ec57610090565b8062dfdbf6146100945780630e1565c2146100b05780632b1fd995146100e05780632bc3a3c114610110575b5f80fd5b6100ae60048036038101906100a99190610acf565b610208565b005b6100ca60048036038101906100c59190610acf565b6103aa565b6040516100d79190610ba4565b60405180910390f35b6100fa60048036038101906100f59190610cec565b61045a565b6040516101079190610d72565b60405180910390f35b61012a60048036038101906101259190610cec565b6104a2565b6040516101379190610ba4565b60405180910390f35b61015a60048036038101906101559190610acf565b610554565b6040516101679190610d72565b60405180910390f35b61018a60048036038101906101859190610d8b565b61059d565b005b6101a660048036038101906101a19190610e33565b6106e7565b6040516101b39190610e78565b60405180910390f35b6101d660048036038101906101d19190610e33565b61073b565b6040516101e39190610ba4565b60405180910390f35b61020660048036038101906102019190610acf565b6107d6565b005b5f60025f3373ffffffffffffffffffffffffffffffffffffffff1673ffffffffffffffffffffffffffffffffffffffff1681526020019081526020015f20805461025190610ebe565b80601f016020809104026020016040519081016040528092919081815260200182805461027d90610ebe565b80156102c85780601f1061029f576101008083540402835291602001916102c8565b820191905f5260205f20905b8154815290600101906020018083116102ab57829003601f168201915b505050505090505f815111610312576040517f08c379a000000000000000000000000000000000000000000000000000000000815260040161030990610f38565b60405180910390fd5b82825f836040516103239190610f90565b9081526020016040518091039020918261033e929190611156565b503373ffffffffffffffffffffffffffffffffffffffff16816040516103649190610f90565b60405180910390207fbebd9e263b6fb8e03b41a95efbddf3130961ab04dc8175a645107489eaed80b8858560405161039d92919061124f565b60405180910390a3505050565b60605f83836040516103bd929190611295565b908152602001604051809103902080546103d690610ebe565b80601f016020809104026020016040519081016040528092919081815260200182805461040290610ebe565b801561044d5780601f106104245761010080835404028352916020019161044d565b820191905f5260205f20905b81548152906001019060200180831161043057829003601f168201915b5050505050905092915050565b6001818051602081018201805184825260208301602085012081835280955050505050505f915054906101000a900473ffffffffffffffffffffffffffffffffffffffff1681565b5f818051602081018201805184825260208301602085012081835280955050505050505f9150905080546104d590610ebe565b80601f016020809104026020016040519081016040528092919081815260200182805461050190610ebe565b801561054c5780601f106105235761010080835404028352916020019161054c565b820191905f5260205f20905b81548152906001019060200180831161052f57829003601f168201915b505050505081565b5f60018383604051610567929190611295565b90815260200160405180910390205f9054906101000a900473ffffffffffffffffffffffffffffffffffffffff16905092915050565b3373ffffffffffffffffffffffffffffffffffffffff16600185856040516105c6929190611295565b90815260200160405180910390205f9054906101000a900473ffffffffffffffffffffffffffffffffffffffff1673ffffffffffffffffffffffffffffffffffffffff161461064a576040517f08c379a0000000000000000000000000000000000000000000000000000000008152600401610641906112f7565b60405180910390fd5b81815f868660405161065d929190611295565b90815260200160405180910390209182610678929190611156565b503373ffffffffffffffffffffffffffffffffffffffff1684846040516106a0929190611295565b60405180910390207fbebd9e263b6fb8e03b41a95efbddf3130961ab04dc8175a645107489eaed80b884846040516106d992919061124f565b60405180910390a350505050565b5f8060025f8473ffffffffffffffffffffffffffffffffffffffff1673ffffffffffffffffffffffffffffffffffffffff1681526020019081526020015f20805461073190610ebe565b9050119050919050565b6002602052805f5260405f205f91509050805461075790610ebe565b80601f016020809104026020016040519081016040528092919081815260200182805461078390610ebe565b80156107ce5780601f106107a5576101008083540402835291602001916107ce565b820191905f5260205f20905b8154815290600101906020018083116107b157829003601f168201915b505050505081565b5f828290501161081b576040517f08c379a00000000000000000000000000000000000000000000000000000000081526004016108129061135f565b60405180910390fd5b5f73ffffffffffffffffffffffffffffffffffffffff1660018383604051610844929190611295565b90815260200160405180910390205f9054906101000a900473ffffffffffffffffffffffffffffffffffffffff1673ffffffffffffffffffffffffffffffffffffffff16146108c8576040517f08c379a00000000000000000000000000000000000000000000000000000000081526004016108bf906113c7565b60405180910390fd5b5f60025f3373ffffffffffffffffffffffffffffffffffffffff1673ffffffffffffffffffffffffffffffffffffffff1681526020019081526020015f20805461091190610ebe565b905014610953576040517f08c379a000000000000000000000000000000000000000000000000000000000815260040161094a9061142f565b60405180910390fd5b3360018383604051610966929190611295565b90815260200160405180910390205f6101000a81548173ffffffffffffffffffffffffffffffffffffffff021916908373ffffffffffffffffffffffffffffffffffffffff160217905550818160025f3373ffffffffffffffffffffffffffffffffffffffff1673ffffffffffffffffffffffffffffffffffffffff1681526020019081526020015f2091826109fd929190611156565b503373ffffffffffffffffffffffffffffffffffffffff168282604051610a25929190611295565b60405180910390207f928747cd3b0fd842c3278d01d3cd835c3bb83de390e88933021fa6657be6312f60405160405180910390a35050565b5f604051905090565b5f80fd5b5f80fd5b5f80fd5b5f80fd5b5f80fd5b5f8083601f840112610a8f57610a8e610a6e565b5b8235905067ffffffffffffffff811115610aac57610aab610a72565b5b602083019150836001820283011115610ac857610ac7610a76565b5b9250929050565b5f8060208385031215610ae557610ae4610a66565b5b5f83013567ffffffffffffffff811115610b0257610b01610a6a565b5b610b0e85828601610a7a565b92509250509250929050565b5f81519050919050565b5f82825260208201905092915050565b5f5b83811015610b51578082015181840152602081019050610b36565b5f8484015250505050565b5f601f19601f8301169050919050565b5f610b7682610b1a565b610b808185610b24565b9350610b90818560208601610b34565b610b9981610b5c565b840191505092915050565b5f6020820190508181035f830152610bbc8184610b6c565b905092915050565b5f80fd5b7f4e487b71000000000000000000000000000000000000000000000000000000005f52604160045260245ffd5b610bfe82610b5c565b810181811067ffffffffffffffff82111715610c1d57610c1c610bc8565b5b80604052505050565b5f610c2f610a5d565b9050610c3b8282610bf5565b919050565b5f67ffffffffffffffff821115610c5a57610c59610bc8565b5b610c6382610b5c565b9050602081019050919050565b828183375f83830152505050565b5f610c90610c8b84610c40565b610c26565b905082815260208101848484011115610cac57610cab610bc4565b5b610cb7848285610c70565b509392505050565b5f82601f830112610cd357610cd2610a6e565b5b8135610ce3848260208601610c7e565b91505092915050565b5f60208284031215610d0157610d00610a66565b5b5f82013567ffffffffffffffff811115610d1e57610d1d610a6a565b5b610d2a84828501610cbf565b91505092915050565b5f73ffffffffffffffffffffffffffffffffffffffff82169050919050565b5f610d5c82610d33565b9050919050565b610d6c81610d52565b82525050565b5f602082019050610d855f830184610d63565b92915050565b5f805f8060408587031215610da357610da2610a66565b5b5f85013567ffffffffffffffff811115610dc057610dbf610a6a565b5b610dcc87828801610a7a565b9450945050602085013567ffffffffffffffff811115610def57610dee610a6a565b5b610dfb87828801610a7a565b925092505092959194509250565b610e1281610d52565b8114610e1c575f80fd5b50565b5f81359050610e2d81610e09565b92915050565b5f60208284031215610e4857610e47610a66565b5b5f610e5584828501610e1f565b91505092915050565b5f8115159050919050565b610e7281610e5e565b82525050565b5f602082019050610e8b5f830184610e69565b92915050565b7f4e487b71000000000000000000000000000000000000000000000000000000005f52602260045260245ffd5b5f6002820490506001821680610ed557607f821691505b602082108103610ee857610ee7610e91565b5b50919050565b7f4e6f7420726567697374657265640000000000000000000000000000000000005f82015250565b5f610f22600e83610b24565b9150610f2d82610eee565b602082019050919050565b5f6020820190508181035f830152610f4f81610f16565b9050919050565b5f81905092915050565b5f610f6a82610b1a565b610f748185610f56565b9350610f84818560208601610b34565b80840191505092915050565b5f610f9b8284610f60565b915081905092915050565b5f82905092915050565b5f819050815f5260205f209050919050565b5f6020601f8301049050919050565b5f82821b905092915050565b5f6008830261100c7fffffffffffffffffffffffffffffffffffffffffffffffffffffffffffffffff82610fd1565b6110168683610fd1565b95508019841693508086168417925050509392505050565b5f819050919050565b5f819050919050565b5f61105a6110556110508461102e565b611037565b61102e565b9050919050565b5f819050919050565b61107383611040565b61108761107f82611061565b848454610fdd565b825550505050565b5f90565b61109b61108f565b6110a681848461106a565b505050565b5b818110156110c9576110be5f82611093565b6001810190506110ac565b5050565b601f82111561110e576110df81610fb0565b6110e884610fc2565b810160208510156110f7578190505b61110b61110385610fc2565b8301826110ab565b50505b505050565b5f82821c905092915050565b5f61112e5f1984600802611113565b1980831691505092915050565b5f611146838361111f565b9150826002028217905092915050565b6111608383610fa6565b67ffffffffffffffff81111561117957611178610bc8565b5b6111838254610ebe565b61118e8282856110cd565b5f601f8311600181146111bb575f84156111a9578287013590505b6111b3858261113b565b86555061121a565b601f1984166111c986610fb0565b5f5b828110156111f0578489013582556001820191506020850194506020810190506111cb565b8683101561120d5784890135611209601f89168261111f565b8355505b6001600288020188555050505b50505050505050565b5f61122e8385610b24565b935061123b838584610c70565b61124483610b5c565b840190509392505050565b5f6020820190508181035f830152611268818486611223565b90509392505050565b5f61127c8385610f56565b9350611289838584610c70565b82840190509392505050565b5f6112a1828486611271565b91508190509392505050565b7f4e6f74206f776e657200000000000000000000000000000000000000000000005f82015250565b5f6112e1600983610b24565b91506112ec826112ad565b602082019050919050565b5f6020820190508181035f83015261130e816112d5565b9050919050565b7f456d70747920757365726e616d650000000000000000000000000000000000005f82015250565b5f611349600e83610b24565b915061135482611315565b602082019050919050565b5f6020820190508181035f8301526113768161133d565b9050919050565b7f557365726e616d652074616b656e0000000000000000000000000000000000005f82015250565b5f6113b1600e83610b24565b91506113bc8261137d565b602082019050919050565b5f6020820190508181035f8301526113de816113a5565b9050919050565b7f416c7265616479207265676973746572656400000000000000000000000000005f82015250565b5f611419601283610b24565b9150611424826113e5565b602082019050919050565b5f6020820190508181035f8301526114468161140d565b905091905056fea26469706673582212207ba842305c905a50bce070828e10ef7e7d9f9ba40d8e1a4946eccd79b14098d064736f6c63430008140033","linkReferences":{}},"methodIdentifiers":{"claims(string)":"2bc3a3c1","getClaims(string)":"0e1565c2","getOwner(string)":"4aaf4a12","isRegistered(address)":"c3c5a547","owners(string)":"2b1fd995","register(string)":"f2c298be","setClaims(string)":"00dfdbf6","setClaimsFor(string,string)":"75a57af9","usernames(address)":"ee91877c"},"id":19}